:100000000C9452000C946F000C946F000C946F00D1
:100010000C946F000C946F000C946F000C946F00A4
:100020000C9464010C946F000C946F000C946F009E
:100030000C946F000C943D010C946F000C946F00B5
:100040000C94F3000C946F000C946F000C946F00F0
:100050000C946F000C946F000C946F000C946F0064
:100060000C946F000C946F00000000002500280025
:100070002B0000000000240027002A0004040404D0
:100080000404040402020202020203030303030342
:10009000010204081020408001020408102001021F
:1000A0000408102011241FBECFEFD8E0DEBFCDBF63
:1000B00011E0A0E0B1E0EEE2F8E002C005900D92A0
:1000C000A83CB107D9F721E0A8ECB1E001C01D922E
:1000D000A33EB207E1F70E9432020C9415040C947F
:1000E000000090E0FC01E057FF4F249184589F4F9F
:1000F000FC018491882399F090E0880F991FFC01FE
:10010000EE58FF4FA591B491FC01E859FF4F85913E
:1001100094918FB7F894EC91E22BEC938FBF0895F4
:100120008E50806480937C0080917A0080648093FC
:100130007A0080917A0086FDFCCF809178009091C2
:10014000790008958091C8019091C9010196883C79
:10015000910541F19093C9018093C8018091C80134
:100160009091C9012091D7013091D8018436910531
:10017000F4F4880F991FFC01E050FF4FA081B1817A
:100180000E9406045AE096958795779567955A954B
:10019000D1F7709389006093880010928B001092C1
:1001A0008A0008951092C9011092C801D7CF109209
:1001B000890010928800E091C801F091C901EE0F0A
:1001C000FF1FE85CFF4FA081B1810E9406042AE076
:1001D00096958795779567952A95D1F770938B00BB
:1001E00060938A0008951F920F920FB60F92112408
:1001F0002F933F938F939F93AF93BF938091DF0192
:100200009091E001A091E101B091E2013091DE0115
:1002100023E0230F2D3758F50196A11DB11D209322
:10022000DE018093DF019093E001A093E101B093A0
:10023000E2018091DA019091DB01A091DC01B091A3
:10024000DD010196A11DB11D8093DA019093DB01C0
:10025000A093DC01B093DD01BF91AF919F918F918D
:100260003F912F910F900FBE0F901F90189526E889
:10027000230F0296A11DB11DD2CF1F920F920FB670
:100280000F9211242F933F934F935F936F937F931C
:100290008F939F93AF93BF93EF93FF93E091D5011B
:1002A000F091D6010995FF91EF91BF91AF919F9188
:1002B0008F917F916F915F914F913F912F910F900F
:1002C0000FBE0F901F9018951F920F920FB60F92AE
:1002D0001124CF92DF92EF92FF922F933F934F938F
:1002E0005F936F937F938F939F93AF93BF93CF93BE
:1002F000DF93EF93FF938091D3019091D401803BE2
:1003000091050CF43DC08091D2011092D40110925D
:10031000D30191E089278093D20181118AC082E8BC
:100320008093B0008091D0019091D101C090CC0118
:10033000D090CD01E090CE01F090CF01813022E04D
:1003400092070CF478C02DEC3CEC4CEC5DE3C7015B
:10035000B6010E940104181684F42AE037ED43E246
:100360005CE3C701B6010E94E4026093CC01709384
:10037000CD018093CE019093CF018EE00E9490003A
:10038000C091D301D091D4016091CC017091CD0185
:100390008091CE019091CF010E94560328EC2C9FB2
:1003A000A0012D9F500D112440505F4F469F90019A
:1003B000479F300D569F300D11243093CB01209371
:1003C000CA012196D093D401C093D3018091D20168
:1003D000811102C02093B3008091D201882321F0C3
:1003E0008091CA018093B4008091D3019091D4018F
:1003F0008639910539F48FE00E9490009093D101E5
:100400008093D001FF91EF91DF91CF91BF91AF9198
:100410009F918F917F916F915F914F913F912F911C
:10042000FF90EF90DF90CF900F900FBE0F901F9036
:10043000189582E275CF8115924009F49ECF24EA87
:1004400030E74DE75FE3C701B6010E94510387FF24
:1004500094CF2AE037ED43E25CE3C701B6010E9486
:10046000E50283CF789484B5826084BD84B58160D1
:1004700084BD85B5826085BD85B5816085BD80916F
:100480006E00816080936E001092810080918100E7
:1004900082608093810080918100816080938100DF
:1004A000809180008160809380008091B1008460A1
:1004B0008093B1008091B00081608093B000809102
:1004C0007A00846080937A0080917A0082608093C1
:1004D0007A0080917A00816080937A0080917A001E
:1004E000806880937A001092C10089E00E947100B8
:1004F0008AE00E94710080E1809381001092800068
:10050000C1E0C093D90180E293E09093D801809339
:10051000D701909387008093860081E180938100CA
:1005200089E00E9471008091800080688093800043
:100530002091D7013091D801A4E6B0E00E940604D2
:100540002AE096958795779567952A95D1F77093C8
:100550008900609388008091D90180618093810037
:100560008AE00E9471008091800080628093800008
:100570002091D7013091D801A4E6B0E00E94060492
:100580003AE096958795779567953A95D1F7709368
:100590008B0060938A008091D901806180938100F3
:1005A00082EA90E09093D6018093D501C0936F00CA
:1005B000F89482E08093B0007894C0E0D0E0209777
:1005C000F1F30E940000FBCF5058BB27AA270E94DE
:1005D000FC020C94C7030E94B90338F00E94C003C8
:1005E00020F039F49F3F19F426F40C94B6030EF46E
:1005F000E095E7FB0C94B003E92F0E94D80358F371
:10060000BA17620773078407950720F079F4A6F5F7
:100610000C94FA030EF4E0950B2EBA2FA02D0B01CB
:10062000B90190010C01CA01A0011124FF27591B37
:1006300099F0593F50F4503E68F11A16F040A22F3D
:10064000232F342F4427585FF3CF469537952795AE
:10065000A795F0405395C9F77EF41F16BA0B620BAD
:10066000730B840BBAF09150A1F0FF0FBB1F661FF4
:10067000771F881FC2F70EC0BA0F621F731F841F37
:1006800048F4879577956795B795F7959E3F08F05D
:10069000B0CF9395880F08F09927EE0F979587951F
:1006A00008950E948C0308F481E008950E945D0380
:1006B0006894B1110C94FB0308950E94E00388F044
:1006C0009F5798F0B92F9927B751B0F0E1F0660F16
:1006D000771F881F991F1AF0BA95C9F714C0B13057
:1006E00091F00E94FA03B1E008950C94FA03672F89
:1006F000782F8827B85F39F0B93FCCF38695779586
:100700006795B395D9F73EF490958095709561956E
:100710007F4F8F4F9F4F0895990F0008550FAA0BD9
:10072000E0E8FEEF16161706E807F907C0F0121604
:100730001306E407F50798F0621B730B840B950B07
:1007400039F40A2661F0232B242B252B21F408955C
:100750000A2609F4A140A6958FEF811D811D0895F9
:1007600097F99F6780E870E060E008959FEF80EC64
:10077000089500240A941616170618060906089507
:1007800000240A9412161306140605060895092E6D
:100790000394000C11F4882352F0BB0F40F4BF2BDC
:1007A00011F460FF04C06F5F7F4F8F4F9F4F08951C
:1007B00057FD9058440F551F59F05F3F71F0479512
:1007C000880F97FB991F61F09F3F79F087950895F7
:1007D000121613061406551FF2CF4695F1DF08C016
:1007E000161617061806991FF1CF86957105610533
:1007F00008940895E894BB2766277727CB0197F9DB
:1008000008950E948C0308F48FEF0895A29FB00111
:10081000B39FC001A39F700D811D1124911DB29F34
:0E082000700D811D1124911D0895F894FFCFD5
:10082E000000190032004B0064007D009600AF00FE
:10083E00C700DF00F7000F0126013E0155016B01D5
:10084E0081019701AD01C201D601EA01FE0111023B
:10085E002402360247025802680278028702960284
:10086E00A302B102BD02C902D402DE02E802F10205
:10087E00F902000307030D03120316031A031C03E8
:10088E001E032003200320031E031C031A0316035A
:10089E0012030D0307030003F902F102E802DE0260
:1008AE00D402C902BD02B102A302960287027802E7
:1008BE00680258024702360224021102FE01EA01C2
:1008CE00D601C201AD01970181016B0155013E01B7
:1008DE0026010F01F700DF00C700AF0096007D0074
:0808EE0064004B003200190008
:00000001FF
